{
  "_format": "hh-sol-artifact-1",
  "contractName": "ERC20PriceOracleVaultFactory",
  "sourceName": "contracts/vault/priceOracle/ERC20PriceOracleVaultFactory.sol",
  "abi": [
    {
      "anonymous": false,
      "inputs": [
        {
          "indexed": false,
          "internalType": "address",
          "name": "sender",
          "type": "address"
        },
        {
          "indexed": false,
          "internalType": "address",
          "name": "implementation",
          "type": "address"
        }
      ],
      "name": "Implementation",
      "type": "event"
    },
    {
      "anonymous": false,
      "inputs": [
        {
          "indexed": false,
          "internalType": "address",
          "name": "sender",
          "type": "address"
        },
        {
          "indexed": false,
          "internalType": "address",
          "name": "child",
          "type": "address"
        }
      ],
      "name": "NewChild",
      "type": "event"
    },
    {
      "inputs": [
        {
          "internalType": "bytes",
          "name": "data_",
          "type": "bytes"
        }
      ],
      "name": "createChild",
      "outputs": [
        {
          "internalType": "address",
          "name": "",
          "type": "address"
        }
      ],
      "stateMutability": "nonpayable",
      "type": "function"
    },
    {
      "inputs": [
        {
          "components": [
            {
              "internalType": "address",
              "name": "priceOracle",
              "type": "address"
            },
            {
              "components": [
                {
                  "internalType": "address",
                  "name": "asset",
                  "type": "address"
                },
                {
                  "internalType": "string",
                  "name": "name",
                  "type": "string"
                },
                {
                  "internalType": "string",
                  "name": "symbol",
                  "type": "string"
                },
                {
                  "internalType": "string",
                  "name": "uri",
                  "type": "string"
                }
              ],
              "internalType": "struct ReceiptVaultConstructionConfig",
              "name": "receiptVaultConfig",
              "type": "tuple"
            }
          ],
          "internalType": "struct ERC20PriceOracleVaultConstructionConfig",
          "name": "config_",
          "type": "tuple"
        }
      ],
      "name": "createChildTyped",
      "outputs": [
        {
          "internalType": "contract ERC20PriceOracleVault",
          "name": "",
          "type": "address"
        }
      ],
      "stateMutability": "nonpayable",
      "type": "function"
    },
    {
      "inputs": [
        {
          "internalType": "address",
          "name": "maybeChild_",
          "type": "address"
        }
      ],
      "name": "isChild",
      "outputs": [
        {
          "internalType": "bool",
          "name": "",
          "type": "bool"
        }
      ],
      "stateMutability": "view",
      "type": "function"
    }
  ],
  "bytecode": "0x608060405234801561001057600080fd5b506001600055614629806100256000396000f3fe60806040523480156200001157600080fd5b5060043610620000465760003560e01c80632ea72a49146200004b57806362e86fdc146200007f578063fc91a8971462000096575b600080fd5b620000626200005c366004620003ab565b620000d6565b6040516001600160a01b0390911681526020015b60405180910390f35b620000626200009036600462000443565b6200020d565b620000c5620000a736600462000561565b6001600160a01b031660009081526001602052604090205460ff1690565b604051901515815260200162000076565b600060026000541415620001315760405162461bcd60e51b815260206004820152601f60248201527f5265656e7472616e637947756172643a207265656e7472616e742063616c6c0060448201526064015b60405180910390fd5b60026000908155620001438362000241565b6001600160a01b03811660009081526001602052604090205490915060ff1615620001a35760405162461bcd60e51b815260206004820152600f60248201526e111554131250d0551157d0d2125311608a1b604482015260640162000128565b6001600160a01b038116600081815260016020818152604092839020805460ff19169092179091558151338152908101929092527f7da70c4e5387d7038610b79ca7d304caaef815826e51e67cf247135387a79bce910160405180910390a1600160005592915050565b60006200023b82604051602001620002269190620005e2565b604051602081830303815290604052620000d6565b92915050565b600081806020019051810190620002599190620006be565b604051620002679062000297565b620002739190620005e2565b604051809103906000f08015801562000290573d6000803e3d6000fd5b5092915050565b613e2b80620007c983390190565b634e487b7160e01b600052604160045260246000fd5b604080519081016001600160401b0381118282101715620002e057620002e0620002a5565b60405290565b604051608081016001600160401b0381118282101715620002e057620002e0620002a5565b604051601f8201601f191681016001600160401b0381118282101715620003365762000336620002a5565b604052919050565b60006001600160401b038211156200035a576200035a620002a5565b50601f01601f191660200190565b60006200037f62000379846200033e565b6200030b565b90508281528383830111156200039457600080fd5b828260208301376000602084830101529392505050565b600060208284031215620003be57600080fd5b81356001600160401b03811115620003d557600080fd5b8201601f81018413620003e757600080fd5b620003f88482356020840162000368565b949350505050565b6001600160a01b03811681146200041657600080fd5b50565b600082601f8301126200042b57600080fd5b6200043c8383356020850162000368565b9392505050565b6000602082840312156200045657600080fd5b81356001600160401b03808211156200046e57600080fd5b90830190604082860312156200048357600080fd5b6200048d620002bb565b82356200049a8162000400565b8152602083013582811115620004af57600080fd5b929092019160808387031215620004c557600080fd5b620004cf620002e6565b8335620004dc8162000400565b8152602084013583811115620004f157600080fd5b620004ff8882870162000419565b6020830152506040840135838111156200051857600080fd5b620005268882870162000419565b6040830152506060840135838111156200053f57600080fd5b6200054d8882870162000419565b606083015250602082015295945050505050565b6000602082840312156200057457600080fd5b81356200043c8162000400565b60005b838110156200059e57818101518382015260200162000584565b83811115620005ae576000848401525b50505050565b60008151808452620005ce81602086016020860162000581565b601f01601f19169290920160200192915050565b602080825282516001600160a01b03908116838301528382015160408085015280519091166060840152908101516080808401526000916200062860e0850183620005b4565b91506040810151605f19808685030160a0870152620006488483620005b4565b935060608301519250808685030160c08701525050620006698282620005b4565b95945050505050565b600082601f8301126200068457600080fd5b81516200069562000379826200033e565b818152846020838601011115620006ab57600080fd5b620003f882602083016020870162000581565b600060208284031215620006d157600080fd5b81516001600160401b0380821115620006e957600080fd5b9083019060408286031215620006fe57600080fd5b62000708620002bb565b8251620007158162000400565b81526020830151828111156200072a57600080fd5b9290920191608083870312156200074057600080fd5b6200074a620002e6565b8351620007578162000400565b81526020840151838111156200076c57600080fd5b6200077a8882870162000672565b6020830152506040840151838111156200079357600080fd5b620007a18882870162000672565b604083015250606084015183811115620007ba57600080fd5b6200054d888287016200067256fe60c06040523480156200001157600080fd5b5060405162003e2b38038062003e2b8339810160408190526200003491620002ee565b806020015180606001518160200151826040015181600390805190602001906200006092919062000101565b5080516200007690600490602084019062000101565b5050506200008a81620000e860201b60201c565b506001600c55516001600160a01b0390811660805281511660a0526040517fe7cb7268f66c42f15396750a10f15b99937c16b3801133ed0bab87ad2125e2e990620000d9903390849062000436565b60405180910390a15062000505565b8051620000fd90600b90602084019062000101565b5050565b8280546200010f90620004c8565b90600052602060002090601f0160209004810192826200013357600085556200017e565b82601f106200014e57805160ff19168380011785556200017e565b828001600101855582156200017e579182015b828111156200017e57825182559160200191906001019062000161565b506200018c92915062000190565b5090565b5b808211156200018c576000815560010162000191565b634e487b7160e01b600052604160045260246000fd5b604080519081016001600160401b0381118282101715620001e257620001e2620001a7565b60405290565b604051608081016001600160401b0381118282101715620001e257620001e2620001a7565b80516001600160a01b03811681146200022557600080fd5b919050565b60005b83811015620002475781810151838201526020016200022d565b8381111562000257576000848401525b50505050565b600082601f8301126200026f57600080fd5b81516001600160401b03808211156200028c576200028c620001a7565b604051601f8301601f19908116603f01168101908282118183101715620002b757620002b7620001a7565b81604052838152866020858801011115620002d157600080fd5b620002e48460208301602089016200022a565b9695505050505050565b6000602082840312156200030157600080fd5b81516001600160401b03808211156200031957600080fd5b90830190604082860312156200032e57600080fd5b62000338620001bd565b62000343836200020d565b81526020830151828111156200035857600080fd5b9290920191608083870312156200036e57600080fd5b62000378620001e8565b62000383846200020d565b81526020840151838111156200039857600080fd5b620003a6888287016200025d565b602083015250604084015183811115620003bf57600080fd5b620003cd888287016200025d565b604083015250606084015183811115620003e657600080fd5b620003f4888287016200025d565b606083015250602082015295945050505050565b60008151808452620004228160208601602086016200022a565b601f01601f19169290920160200192915050565b600060018060a01b0380851683526040602084015280845116604084015260208401516040606085015281815116608085015260208101519150608060a08501526200048761010085018362000408565b91506040810151607f19808685030160c0870152620004a7848362000408565b935060608301519250808685030160e08701525050620002e4828262000408565b600181811c90821680620004dd57607f821691505b60208210811415620004ff57634e487b7160e01b600052602260045260246000fd5b50919050565b60805160a0516138f262000539600039600081816103ca0152818161114f015261132f01526000610b1c01526138f26000f3fe608060405234801561001057600080fd5b50600436106102cb5760003560e01c806385b687561161017d578063b460af94116100d9578063ce96cb7711610092578063ce96cb771461067a578063d904f1941461068d578063d905777e146106ad578063dd62ed3e146106c0578063e985e9c5146106d3578063ef8b30f71461070f578063f242432a1461072257600080fd5b8063b460af941461061b578063ba0876521461062e578063bbec4d0614610641578063c63d75b614610441578063c6e6f59214610654578063c77b66c21461066757600080fd5b8063a22cb46511610136578063a22cb4651461057c578063a318c1a41461058f578063a457c2d7146105a2578063a9059cbb146105b5578063ac9650d8146105c8578063b0d601e5146105e8578063b3d7f6b91461060857600080fd5b806385b6875614610508578063943b58c61461051b57806394bf804d1461053b57806395d89b411461054e578063981b24d0146105565780639f40a7b31461056957600080fd5b80632eb2c2d61161022c578063488bd7b0116101e5578063488bd7b0146104765780634abe4137146104895780634cdad5061461049c5780634e1273f4146104af5780634ee2cd7e146104cf5780636e553f65146104e257806370a08231146104f557600080fd5b80632eb2c2d614610404578063313ce5671461041757806338d52e0f14610426578063395093511461042e578063402d267d14610441578063486ad2f21461045657600080fd5b80630a28a477116102895780630a28a4771461035c5780630e89341c1461036f5780631423feba14610382578063177769cb1461039557806318160ddd146103aa57806323b872dd146103b25780632630c12f146103c557600080fd5b8062fdd58e146102d057806301e1d114146102f657806301ffc9a7146102fe57806306fdde031461032157806307a2d13a14610336578063095ea7b314610349575b600080fd5b6102e36102de366004612ba6565b610735565b6040519081526020015b60405180910390f35b6102e36107d0565b61031161030c366004612be6565b61084c565b60405190151581526020016102ed565b61032961089c565b6040516102ed9190612c5b565b6102e3610344366004612c6e565b61092e565b610311610357366004612ba6565b610941565b6102e361036a366004612c6e565b610959565b61032961037d366004612c6e565b610974565b6102e3610390366004612d3c565b610a08565b6103a86103a3366004612d9c565b610a61565b005b6002546102e3565b6103116103c0366004612de2565b610aa8565b6103ec7f000000000000000000000000000000000000000000000000000000000000000081565b6040516001600160a01b0390911681526020016102ed565b6103a8610412366004612eb2565b610ace565b604051601281526020016102ed565b6103ec610b1a565b61031161043c366004612ba6565b610b3e565b6102e361044f366004612f5b565b5060001990565b6102e3610464366004612f5b565b600e6020526000908152604090205481565b6102e3610484366004612f76565b610b60565b6102e3610497366004612ba6565b610b6c565b6102e36104aa366004612c6e565b610b78565b6104c26104bd366004612f98565b610b93565b6040516102ed9190613093565b6102e36104dd366004612ba6565b610cbc565b6102e36104f03660046130a6565b610d05565b6102e3610503366004612f5b565b610d30565b6102e3610516366004612ba6565b610d4b565b6103a8610529366004612c6e565b336000908152600e6020526040902055565b6102e36105493660046130a6565b610d60565b610329610d8b565b6102e3610564366004612c6e565b610d9a565b6102e36105773660046130d2565b610dc5565b6103a861058a366004613124565b610de0565b6102e361059d3660046130d2565b610deb565b6103116105b0366004612ba6565b610e06565b6103116105c3366004612ba6565b610e8c565b6105db6105d636600461315b565b610e9a565b6040516102ed91906131cf565b6103a86105f6366004612c6e565b336000908152600d6020526040902055565b6102e3610616366004612c6e565b610f8e565b6102e3610629366004613231565b610fb3565b6102e361063c366004613231565b610fdb565b6102e361064f366004612f76565b611003565b6102e3610662366004612c6e565b61100f565b6102e3610675366004612d3c565b611024565b6102e3610688366004612f5b565b61106e565b6102e361069b366004612f5b565b600d6020526000908152604090205481565b6102e36106bb366004612f5b565b611092565b6102e36106ce36600461326d565b6110b6565b6103116106e136600461326d565b6001600160a01b039182166000908152600a6020908152604080832093909416825291909152205460ff1690565b6102e361071d366004612c6e565b6110e1565b6103a8610730366004613297565b611106565b60006001600160a01b0383166107a55760405162461bcd60e51b815260206004820152602a60248201527f455243313135353a2061646472657373207a65726f206973206e6f742061207660448201526930b634b21037bbb732b960b11b60648201526084015b60405180910390fd5b5060008181526009602090815260408083206001600160a01b03861684529091529020545b92915050565b60006107da610b1a565b6040516370a0823160e01b81523060048201526001600160a01b0391909116906370a0823190602401602060405180830381865afa92505050801561083c575060408051601f3d908101601f19168201909252610839918101906132fb565b60015b6108465750600090565b90505b90565b60006001600160e01b03198216636cdb3d1360e11b148061087d57506001600160e01b031982166303a24d0760e21b145b806107ca57506301ffc9a760e01b6001600160e01b03198316146107ca565b6060600380546108ab90613314565b80601f01602080910402602001604051908101604052809291908181526020018280546108d790613314565b80156109245780601f106108f957610100808354040283529160200191610924565b820191906000526020600020905b81548152906001019060200180831161090757829003601f168201915b5050505050905090565b60006107ca8261093c61114b565b6111c4565b60003361094f8185856111d0565b5060019392505050565b336000908152600e60205260408120546107ca908390610b60565b6060600b805461098390613314565b80601f01602080910402602001604051908101604052809291908181526020018280546109af90613314565b80156109fc5780601f106109d1576101008083540402835291602001916109fc565b820191906000526020600020905b8154815290600101906020018083116109df57829003601f168201915b50505050509050919050565b600080610a1533866112f5565b905080841115610a375760405162461bcd60e51b815260040161079c9061334f565b610a428682866112ff565b9150610a58868684610a5261132b565b876113af565b50949350505050565b805115610aa4577fd66d6a9810a5cef78b704e7e04334961e997c81d337f029f74637f060f3d8d65338383604051610a9b93929190613378565b60405180910390a15b5050565b600033610ab6858285611532565b610ac18585856115ac565b60019150505b9392505050565b6001600160a01b038516331480610aea5750610aea85336106e1565b610b065760405162461bcd60e51b815260040161079c9061339f565b610b138585858585611773565b5050505050565b7f000000000000000000000000000000000000000000000000000000000000000090565b60003361094f818585610b5183836110b6565b610b5b9190613404565b6111d0565b6000610ac78383611953565b6000610ac78383610735565b336000908152600e60205260408120546107ca9083906111c4565b60608151835114610bf85760405162461bcd60e51b815260206004820152602960248201527f455243313135353a206163636f756e747320616e6420696473206c656e677468604482015268040dad2e6dac2e8c6d60bb1b606482015260840161079c565b600083516001600160401b03811115610c1357610c13612c87565b604051908082528060200260200182016040528015610c3c578160200160208202803683370190505b50905060005b8451811015610cb457610c87858281518110610c6057610c6061341c565b6020026020010151858381518110610c7a57610c7a61341c565b6020026020010151610735565b828281518110610c9957610c9961341c565b6020908102919091010152610cad81613432565b9050610c42565b509392505050565b6001600160a01b038216600090815260056020526040812081908190610ce390859061196a565b9150915081610cfa57610cf585610d30565b610cfc565b805b95945050505050565b336000908152600d60209081526040808320548151928301909152828252610ac79185918591610a08565b6001600160a01b031660009081526020819052604090205490565b6000610ac7610d5a8484610735565b836111c4565b336000908152600d60209081526040808320548151928301909152828252610ac79185918591611024565b6060600480546108ab90613314565b6000806000610daa84600661196a565b9150915081610dbb57600254610dbd565b805b949350505050565b6000610dd185836111c4565b9050610dbd8185858886611a61565b610aa4338383611c12565b6000610df78583611953565b9050610dbd8585858486611a61565b60003381610e1482866110b6565b905083811015610e745760405162461bcd60e51b815260206004820152602560248201527f45524332303a2064656372656173656420616c6c6f77616e63652062656c6f77604482015264207a65726f60d81b606482015260840161079c565b610e8182868684036111d0565b506001949350505050565b60003361094f8185856115ac565b6060816001600160401b03811115610eb457610eb4612c87565b604051908082528060200260200182016040528015610ee757816020015b6060815260200190600190039081610ed25790505b50905060005b82811015610f8757610f5730858584818110610f0b57610f0b61341c565b9050602002810190610f1d919061344d565b8080601f016020809104026020016040519081016040528093929190818152602001838380828437600092019190915250611ceb92505050565b828281518110610f6957610f6961341c565b60200260200101819052508080610f7f90613432565b915050610eed565b5092915050565b60006107ca82610f9e33336112f5565b336000908152600d6020526040902054611d10565b6001600160a01b0381166000908152600e6020526040812054610dbd90859085908590610deb565b6001600160a01b0381166000908152600e6020526040812054610dbd90859085908590610dc5565b6000610ac783836111c4565b60006107ca8261101d61114b565b60006112ff565b60008061103133866112f5565b9050808411156110535760405162461bcd60e51b815260040161079c9061334f565b61105e868286611d10565b9150610a58828688610a5261132b565b6001600160a01b0381166000908152600e60205260408120546107ca908390610d4b565b6001600160a01b0381166000908152600e60205260408120546107ca908390610b6c565b6001600160a01b03918216600090815260016020908152604080832093909416825291909152205490565b60006107ca826110f133336112f5565b336000908152600d60205260409020546112ff565b6001600160a01b038516331480611122575061112285336106e1565b61113e5760405162461bcd60e51b815260040161079c9061339f565b610b138585858585611d47565b60007f00000000000000000000000000000000000000000000000000000000000000006001600160a01b031663a035b1fe6040518163ffffffff1660e01b8152600401602060405180830381865afa92505050801561083c575060408051601f3d908101601f19168201909252610839918101906132fb565b6000610ac78383611e63565b6001600160a01b0383166112325760405162461bcd60e51b8152602060048201526024808201527f45524332303a20617070726f76652066726f6d20746865207a65726f206164646044820152637265737360e01b606482015260840161079c565b6001600160a01b0382166112935760405162461bcd60e51b815260206004820152602260248201527f45524332303a20617070726f766520746f20746865207a65726f206164647265604482015261737360f01b606482015260840161079c565b6001600160a01b0383811660008181526001602090815260408083209487168084529482529182902085905590518481527f8c5be1e5ebec7d5bd14f71427d1e84f3dd0314c0f7b2291e5b200ac8c7c3b92591015b60405180910390a3505050565b6000610ac761114b565b6000818310156113215760405162461bcd60e51b815260040161079c9061334f565b610dbd8484611e82565b60007f00000000000000000000000000000000000000000000000000000000000000006001600160a01b031663a035b1fe6040518163ffffffff1660e01b8152600401602060405180830381865afa15801561138b573d6000803e3d6000fd5b505050506040513d601f19601f8201168201806040525081019061084691906132fb565b6002600c5414156113d25760405162461bcd60e51b815260040161079c90613493565b6002600c55846113f45760405162461bcd60e51b815260040161079c906134ca565b6001600160a01b03841661141a5760405162461bcd60e51b815260040161079c906134ec565b6000831161143a5760405162461bcd60e51b815260040161079c90613510565b600082116114735760405162461bcd60e51b815260040161079c906020808252600490820152630c17d25160e21b604082015260600190565b60408051868152602081018590526001600160a01b0386169133917fdcbc1c05240f31ff3ad067ef1ee35ce4997762752e3a095284754544f4c709d7910160405180910390a37f5ed31a4c06e645f3918576e173ec5a8115dbce3fcc93bfe3661a70cdc9334d7c3385878686866040516114f296959493929190613532565b60405180910390a161150685858585611e97565b6115108484611eb6565b61151c84838584611f8f565b6115268282610a61565b50506001600c55505050565b600061153e84846110b6565b905060001981146115a657818110156115995760405162461bcd60e51b815260206004820152601d60248201527f45524332303a20696e73756666696369656e7420616c6c6f77616e6365000000604482015260640161079c565b6115a684848484036111d0565b50505050565b6001600160a01b0383166116105760405162461bcd60e51b815260206004820152602560248201527f45524332303a207472616e736665722066726f6d20746865207a65726f206164604482015264647265737360d81b606482015260840161079c565b6001600160a01b0382166116725760405162461bcd60e51b815260206004820152602360248201527f45524332303a207472616e7366657220746f20746865207a65726f206164647260448201526265737360e81b606482015260840161079c565b61167d838383612093565b6001600160a01b038316600090815260208190526040902054818110156116f55760405162461bcd60e51b815260206004820152602660248201527f45524332303a207472616e7366657220616d6f756e7420657863656564732062604482015265616c616e636560d01b606482015260840161079c565b6001600160a01b0380851660009081526020819052604080822085850390559185168152908120805484929061172c908490613404565b92505081905550826001600160a01b0316846001600160a01b031660008051602061389d8339815191528460405161176691815260200190565b60405180910390a36115a6565b81518351146117d55760405162461bcd60e51b815260206004820152602860248201527f455243313135353a2069647320616e6420616d6f756e7473206c656e677468206044820152670dad2e6dac2e8c6d60c31b606482015260840161079c565b6001600160a01b0384166117fb5760405162461bcd60e51b815260040161079c9061357b565b3360005b84518110156118e557600085828151811061181c5761181c61341c565b60200260200101519050600085838151811061183a5761183a61341c565b60209081029190910181015160008481526009835260408082206001600160a01b038e16835290935291909120549091508181101561188b5760405162461bcd60e51b815260040161079c906135c0565b60008381526009602090815260408083206001600160a01b038e8116855292528083208585039055908b168252812080548492906118ca908490613404565b92505081905550505050806118de90613432565b90506117ff565b50846001600160a01b0316866001600160a01b0316826001600160a01b03167f4a39dc06d4c0dbc64b70af90fd698a233a518aa5d07e595d983b8c0526c8f7fb878760405161193592919061360a565b60405180910390a461194b8187878787876120e0565b505050505050565b600061195f8383611e82565b610ac7906001613404565b600080600084116119b65760405162461bcd60e51b815260206004820152601660248201527504552433230536e617073686f743a20696420697320360541b604482015260640161079c565b6119be61223c565b841115611a0d5760405162461bcd60e51b815260206004820152601d60248201527f4552433230536e617073686f743a206e6f6e6578697374656e74206964000000604482015260640161079c565b6000611a198486612247565b8454909150811415611a32576000809250925050611a5a565b6001846001018281548110611a4957611a4961341c565b906000526020600020015492509250505b9250929050565b6002600c541415611a845760405162461bcd60e51b815260040161079c90613493565b6002600c5584611aa65760405162461bcd60e51b815260040161079c906134ca565b6001600160a01b038416611acc5760405162461bcd60e51b815260040161079c906134ec565b6001600160a01b038316611b0c5760405162461bcd60e51b8152602060048201526007602482015266182fa7aba722a960c91b604482015260640161079c565b60008211611b2c5760405162461bcd60e51b815260040161079c90613510565b60408051868152602081018490526001600160a01b03808616929087169133917ffbde797d201c681b91056529119e0b02407c7bb96a4a2c75c01fc9667232c8db910160405180910390a4604080513381526001600160a01b038681166020830152851681830152606081018790526080810184905260a0810183905290517f01eda009fc2f79286ad5dee476bdf7b1f0a1d23ab4a929f51ca8399724f184079181900360c00190a16001600160a01b0383163314611bf057611bf0833384611532565b611bfa838361230a565b611c05838284612452565b61152685858585856125bf565b816001600160a01b0316836001600160a01b03161415611c865760405162461bcd60e51b815260206004820152602960248201527f455243313135353a2073657474696e6720617070726f76616c20737461747573604482015268103337b91039b2b63360b91b606482015260840161079c565b6001600160a01b038381166000818152600a6020908152604080832094871680845294825291829020805460ff191686151590811790915591519182527f17307eab39ab6107e8899845ad3d59bd9653f200f220920489ca2b5937696c3191016112e8565b6060610ac78383604051806060016040528060278152602001613876602791396125dc565b600081831015611d325760405162461bcd60e51b815260040161079c9061334f565b611d3c8484611e63565b610dbd906001613404565b6001600160a01b038416611d6d5760405162461bcd60e51b815260040161079c9061357b565b336000611d79856126b9565b90506000611d86856126b9565b905060008681526009602090815260408083206001600160a01b038c16845290915290205485811015611dcb5760405162461bcd60e51b815260040161079c906135c0565b60008781526009602090815260408083206001600160a01b038d8116855292528083208985039055908a16825281208054889290611e0a908490613404565b909155505060408051888152602081018890526001600160a01b03808b16928c82169291881691600080516020613856833981519152910160405180910390a4611e58848a8a8a8a8a612704565b505050505050505050565b600081611e78670de0b6b3a76400008561362f565b610ac7919061364e565b6000670de0b6b3a7640000611e78838561362f565b6115a6333086611ea5610b1a565b6001600160a01b03169291906127bf565b6001600160a01b038216611f0c5760405162461bcd60e51b815260206004820152601f60248201527f45524332303a206d696e7420746f20746865207a65726f206164647265737300604482015260640161079c565b611f1860008383612093565b8060026000828254611f2a9190613404565b90915550506001600160a01b03821660009081526020819052604081208054839290611f57908490613404565b90915550506040518181526001600160a01b0383169060009060008051602061389d8339815191529060200160405180910390a35050565b6001600160a01b038416611fef5760405162461bcd60e51b815260206004820152602160248201527f455243313135353a206d696e7420746f20746865207a65726f206164647265736044820152607360f81b606482015260840161079c565b336000611ffb856126b9565b90506000612008856126b9565b905060008681526009602090815260408083206001600160a01b038b1684529091528120805487929061203c908490613404565b909155505060408051878152602081018790526001600160a01b03808a169260009291871691600080516020613856833981519152910160405180910390a461208a83600089898989612704565b50505050505050565b6001600160a01b0383166120b7576120aa8261282a565b6120b2612857565b505050565b6001600160a01b0382166120ce576120aa8361282a565b6120d78361282a565b6120b28261282a565b6001600160a01b0384163b1561194b5760405163bc197c8160e01b81526001600160a01b0385169063bc197c81906121249089908990889088908890600401613670565b6020604051808303816000875af192505050801561215f575060408051601f3d908101601f1916820190925261215c918101906136c2565b60015b61220c5761216b6136df565b806308c379a014156121a557506121806136fa565b8061218b57506121a7565b8060405162461bcd60e51b815260040161079c9190612c5b565b505b60405162461bcd60e51b815260206004820152603460248201527f455243313135353a207472616e7366657220746f206e6f6e20455243313135356044820152732932b1b2b4bb32b91034b6b83632b6b2b73a32b960611b606482015260840161079c565b6001600160e01b0319811663bc197c8160e01b1461208a5760405162461bcd60e51b815260040161079c90613783565b600061084660085490565b8154600090612258575060006107ca565b82546000905b808210156122b45760006122728383612867565b9050848682815481106122875761228761341c565b906000526020600020015411156122a0578091506122ae565b6122ab816001613404565b92505b5061225e565b6000821180156122e9575083856122cc6001856137cb565b815481106122dc576122dc61341c565b9060005260206000200154145b15612302576122f96001836137cb565b925050506107ca565b5090506107ca565b6001600160a01b03821661236a5760405162461bcd60e51b815260206004820152602160248201527f45524332303a206275726e2066726f6d20746865207a65726f206164647265736044820152607360f81b606482015260840161079c565b61237682600083612093565b6001600160a01b038216600090815260208190526040902054818110156123ea5760405162461bcd60e51b815260206004820152602260248201527f45524332303a206275726e20616d6f756e7420657863656564732062616c616e604482015261636560f01b606482015260840161079c565b6001600160a01b03831660009081526020819052604081208383039055600280548492906124199084906137cb565b90915550506040518281526000906001600160a01b0385169060008051602061389d8339815191529060200160405180910390a3505050565b6001600160a01b0383166124b45760405162461bcd60e51b815260206004820152602360248201527f455243313135353a206275726e2066726f6d20746865207a65726f206164647260448201526265737360e81b606482015260840161079c565b3360006124c0846126b9565b905060006124cd846126b9565b6040805160208082018352600091829052888252600981528282206001600160a01b038b16835290522054909150848110156125575760405162461bcd60e51b8152602060048201526024808201527f455243313135353a206275726e20616d6f756e7420657863656564732062616c604482015263616e636560e01b606482015260840161079c565b60008681526009602090815260408083206001600160a01b038b81168086529184528285208a8703905582518b81529384018a9052909290881691600080516020613856833981519152910160405180910390a460408051602081019091526000905261208a565b610b1384866125cc610b1a565b6001600160a01b03169190612882565b60606001600160a01b0384163b6126445760405162461bcd60e51b815260206004820152602660248201527f416464726573733a2064656c65676174652063616c6c20746f206e6f6e2d636f6044820152651b9d1c9858dd60d21b606482015260840161079c565b600080856001600160a01b03168560405161265f91906137e2565b600060405180830381855af49150503d806000811461269a576040519150601f19603f3d011682016040523d82523d6000602084013e61269f565b606091505b50915091506126af8282866128b2565b9695505050505050565b604080516001808252818301909252606091600091906020808301908036833701905050905082816000815181106126f3576126f361341c565b602090810291909101015292915050565b6001600160a01b0384163b1561194b5760405163f23a6e6160e01b81526001600160a01b0385169063f23a6e619061274890899089908890889088906004016137fe565b6020604051808303816000875af1925050508015612783575060408051601f3d908101601f19168201909252612780918101906136c2565b60015b61278f5761216b6136df565b6001600160e01b0319811663f23a6e6160e01b1461208a5760405162461bcd60e51b815260040161079c90613783565b6040516001600160a01b03808516602483015283166044820152606481018290526115a69085906323b872dd60e01b906084015b60408051601f198184030181529190526020810180516001600160e01b03166001600160e01b0319909316929092179091526128eb565b6001600160a01b03811660009081526005602052604090206128549061284f83610d30565b6129bd565b50565b612865600661284f60025490565b565b6000612876600284841861364e565b610ac790848416613404565b6040516001600160a01b0383166024820152604481018290526120b290849063a9059cbb60e01b906064016127f3565b606083156128c1575081610ac7565b8251156128d15782518084602001fd5b8160405162461bcd60e51b815260040161079c9190612c5b565b6000612940826040518060400160405280602081526020017f5361666545524332303a206c6f772d6c6576656c2063616c6c206661696c6564815250856001600160a01b0316612a079092919063ffffffff16565b8051909150156120b2578080602001905181019061295e9190613838565b6120b25760405162461bcd60e51b815260206004820152602a60248201527f5361666545524332303a204552433230206f7065726174696f6e20646964206e6044820152691bdd081cdd58d8d9595960b21b606482015260840161079c565b60006129c761223c565b9050806129d384612a16565b10156120b2578254600180820185556000858152602080822090930193909355938401805494850181558252902090910155565b6060610dbd8484600085612a5e565b8054600090612a2757506000919050565b81548290612a37906001906137cb565b81548110612a4757612a4761341c565b90600052602060002001549050919050565b919050565b606082471015612abf5760405162461bcd60e51b815260206004820152602660248201527f416464726573733a20696e73756666696369656e742062616c616e636520666f6044820152651c8818d85b1b60d21b606482015260840161079c565b6001600160a01b0385163b612b165760405162461bcd60e51b815260206004820152601d60248201527f416464726573733a2063616c6c20746f206e6f6e2d636f6e7472616374000000604482015260640161079c565b600080866001600160a01b03168587604051612b3291906137e2565b60006040518083038185875af1925050503d8060008114612b6f576040519150601f19603f3d011682016040523d82523d6000602084013e612b74565b606091505b5091509150612b848282866128b2565b979650505050505050565b80356001600160a01b0381168114612a5957600080fd5b60008060408385031215612bb957600080fd5b612bc283612b8f565b946020939093013593505050565b6001600160e01b03198116811461285457600080fd5b600060208284031215612bf857600080fd5b8135610ac781612bd0565b60005b83811015612c1e578181015183820152602001612c06565b838111156115a65750506000910152565b60008151808452612c47816020860160208601612c03565b601f01601f19169290920160200192915050565b602081526000610ac76020830184612c2f565b600060208284031215612c8057600080fd5b5035919050565b634e487b7160e01b600052604160045260246000fd5b601f8201601f191681016001600160401b0381118282101715612cc257612cc2612c87565b6040525050565b600082601f830112612cda57600080fd5b81356001600160401b03811115612cf357612cf3612c87565b604051612d0a601f8301601f191660200182612c9d565b818152846020838601011115612d1f57600080fd5b816020850160208301376000918101602001919091529392505050565b60008060008060808587031215612d5257600080fd5b84359350612d6260208601612b8f565b92506040850135915060608501356001600160401b03811115612d8457600080fd5b612d9087828801612cc9565b91505092959194509250565b60008060408385031215612daf57600080fd5b8235915060208301356001600160401b03811115612dcc57600080fd5b612dd885828601612cc9565b9150509250929050565b600080600060608486031215612df757600080fd5b612e0084612b8f565b9250612e0e60208501612b8f565b9150604084013590509250925092565b60006001600160401b03821115612e3757612e37612c87565b5060051b60200190565b600082601f830112612e5257600080fd5b81356020612e5f82612e1e565b604051612e6c8282612c9d565b83815260059390931b8501820192828101915086841115612e8c57600080fd5b8286015b84811015612ea75780358352918301918301612e90565b509695505050505050565b600080600080600060a08688031215612eca57600080fd5b612ed386612b8f565b9450612ee160208701612b8f565b935060408601356001600160401b0380821115612efd57600080fd5b612f0989838a01612e41565b94506060880135915080821115612f1f57600080fd5b612f2b89838a01612e41565b93506080880135915080821115612f4157600080fd5b50612f4e88828901612cc9565b9150509295509295909350565b600060208284031215612f6d57600080fd5b610ac782612b8f565b60008060408385031215612f8957600080fd5b50508035926020909101359150565b60008060408385031215612fab57600080fd5b82356001600160401b0380821115612fc257600080fd5b818501915085601f830112612fd657600080fd5b81356020612fe382612e1e565b604051612ff08282612c9d565b83815260059390931b850182019282810191508984111561301057600080fd5b948201945b838610156130355761302686612b8f565b82529482019490820190613015565b9650508601359250508082111561304b57600080fd5b50612dd885828601612e41565b600081518084526020808501945080840160005b838110156130885781518752958201959082019060010161306c565b509495945050505050565b602081526000610ac76020830184613058565b600080604083850312156130b957600080fd5b823591506130c960208401612b8f565b90509250929050565b600080600080608085870312156130e857600080fd5b843593506130f860208601612b8f565b925061310660408601612b8f565b9396929550929360600135925050565b801515811461285457600080fd5b6000806040838503121561313757600080fd5b61314083612b8f565b9150602083013561315081613116565b809150509250929050565b6000806020838503121561316e57600080fd5b82356001600160401b038082111561318557600080fd5b818501915085601f83011261319957600080fd5b8135818111156131a857600080fd5b8660208260051b85010111156131bd57600080fd5b60209290920196919550909350505050565b6000602080830181845280855180835260408601915060408160051b870101925083870160005b8281101561322457603f19888603018452613212858351612c2f565b945092850192908501906001016131f6565b5092979650505050505050565b60008060006060848603121561324657600080fd5b8335925061325660208501612b8f565b915061326460408501612b8f565b90509250925092565b6000806040838503121561328057600080fd5b61328983612b8f565b91506130c960208401612b8f565b600080600080600060a086880312156132af57600080fd5b6132b886612b8f565b94506132c660208701612b8f565b9350604086013592506060860135915060808601356001600160401b038111156132ef57600080fd5b612f4e88828901612cc9565b60006020828403121561330d57600080fd5b5051919050565b600181811c9082168061332857607f821691505b6020821081141561334957634e487b7160e01b600052602260045260246000fd5b50919050565b6020808252600f908201526e4d494e5f53484152455f524154494f60881b604082015260600190565b60018060a01b0384168152826020820152606060408201526000610cfc6060830184612c2f565b6020808252602f908201527f455243313135353a2063616c6c6572206973206e6f7420746f6b656e206f776e60408201526e195c881b9bdc88185c1c1c9bdd9959608a1b606082015260800190565b634e487b7160e01b600052601160045260246000fd5b60008219821115613417576134176133ee565b500190565b634e487b7160e01b600052603260045260246000fd5b6000600019821415613446576134466133ee565b5060010190565b6000808335601e1984360301811261346457600080fd5b8301803591506001600160401b0382111561347e57600080fd5b602001915036819003821315611a5a57600080fd5b6020808252601f908201527f5265656e7472616e637947756172643a207265656e7472616e742063616c6c00604082015260600190565b602080825260089082015267305f41535345545360c01b604082015260600190565b6020808252600a9082015269182fa922a1a2a4ab22a960b11b604082015260600190565b602080825260089082015267305f53484152455360c01b604082015260600190565b600060018060a01b03808916835280881660208401525085604083015284606083015283608083015260c060a083015261356f60c0830184612c2f565b98975050505050505050565b60208082526025908201527f455243313135353a207472616e7366657220746f20746865207a65726f206164604082015264647265737360d81b606082015260800190565b6020808252602a908201527f455243313135353a20696e73756666696369656e742062616c616e636520666f60408201526939103a3930b739b332b960b11b606082015260800190565b60408152600061361d6040830185613058565b8281036020840152610cfc8185613058565b6000816000190483118215151615613649576136496133ee565b500290565b60008261366b57634e487b7160e01b600052601260045260246000fd5b500490565b6001600160a01b0386811682528516602082015260a06040820181905260009061369c90830186613058565b82810360608401526136ae8186613058565b9050828103608084015261356f8185612c2f565b6000602082840312156136d457600080fd5b8151610ac781612bd0565b600060033d11156108495760046000803e5060005160e01c90565b600060443d10156137085790565b6040516003193d81016004833e81513d6001600160401b03816024840111818411171561373757505050505090565b828501915081518181111561374f5750505050505090565b843d87010160208285010111156137695750505050505090565b61377860208286010187612c9d565b509095945050505050565b60208082526028908201527f455243313135353a204552433131353552656365697665722072656a656374656040820152676420746f6b656e7360c01b606082015260800190565b6000828210156137dd576137dd6133ee565b500390565b600082516137f4818460208701612c03565b9190910192915050565b6001600160a01b03868116825285166020820152604081018490526060810183905260a060808201819052600090612b8490830184612c2f565b60006020828403121561384a57600080fd5b8151610ac78161311656fec3d58168c5ae7397731d063d5bbf3d657854427343f4c083240f7aacaa2d0f62416464726573733a206c6f772d6c6576656c2064656c65676174652063616c6c206661696c6564ddf252ad1be2c89b69c2b068fc378daa952ba7f163c4a11628f55a4df523b3efa2646970667358221220103a1eb198cbb3f4ab0a3eca70840ffd96721c6bd85abfccac0a2794e14cf64a64736f6c634300080a0033a26469706673582212207899d117ab05c51f1d63d5d31c3c172b944163a0e04619ff694e89aea216e0e064736f6c634300080a0033",
  "linkReferences": {},
  "deployedLinkReferences": {}
}