{
  "_format": "hh-sol-artifact-1",
  "contractName": "TwoPriceOracleFactory",
  "sourceName": "contracts/oracle/price/TwoPriceOracleFactory.sol",
  "abi": [
    {
      "anonymous": false,
      "inputs": [
        {
          "indexed": false,
          "internalType": "address",
          "name": "sender",
          "type": "address"
        },
        {
          "indexed": false,
          "internalType": "address",
          "name": "implementation",
          "type": "address"
        }
      ],
      "name": "Implementation",
      "type": "event"
    },
    {
      "anonymous": false,
      "inputs": [
        {
          "indexed": false,
          "internalType": "address",
          "name": "sender",
          "type": "address"
        },
        {
          "indexed": false,
          "internalType": "address",
          "name": "child",
          "type": "address"
        }
      ],
      "name": "NewChild",
      "type": "event"
    },
    {
      "inputs": [
        {
          "internalType": "bytes",
          "name": "data_",
          "type": "bytes"
        }
      ],
      "name": "createChild",
      "outputs": [
        {
          "internalType": "address",
          "name": "",
          "type": "address"
        }
      ],
      "stateMutability": "nonpayable",
      "type": "function"
    },
    {
      "inputs": [
        {
          "components": [
            {
              "internalType": "address",
              "name": "base",
              "type": "address"
            },
            {
              "internalType": "address",
              "name": "quote",
              "type": "address"
            }
          ],
          "internalType": "struct TwoPriceOracleConstructionConfig",
          "name": "config_",
          "type": "tuple"
        }
      ],
      "name": "createChildTyped",
      "outputs": [
        {
          "internalType": "contract TwoPriceOracle",
          "name": "",
          "type": "address"
        }
      ],
      "stateMutability": "nonpayable",
      "type": "function"
    },
    {
      "inputs": [
        {
          "internalType": "address",
          "name": "maybeChild_",
          "type": "address"
        }
      ],
      "name": "isChild",
      "outputs": [
        {
          "internalType": "bool",
          "name": "",
          "type": "bool"
        }
      ],
      "stateMutability": "view",
      "type": "function"
    }
  ],
  "bytecode": "0x608060405234801561001057600080fd5b506001600055610869806100256000396000f3fe608060405234801561001057600080fd5b50600436106100415760003560e01c80632ea72a49146100465780638ce7fcc814610076578063fc91a89714610089575b600080fd5b6100596100543660046102c2565b6100c5565b6040516001600160a01b0390911681526020015b60405180910390f35b61005961008436600461038b565b6101f7565b6100b56100973660046103cc565b6001600160a01b031660009081526001602052604090205460ff1690565b604051901515815260200161006d565b60006002600054141561011f5760405162461bcd60e51b815260206004820152601f60248201527f5265656e7472616e637947756172643a207265656e7472616e742063616c6c0060448201526064015b60405180910390fd5b6002600090815561012f83610227565b6001600160a01b03811660009081526001602052604090205490915060ff161561018d5760405162461bcd60e51b815260206004820152600f60248201526e111554131250d0551157d0d2125311608a1b6044820152606401610116565b6001600160a01b038116600081815260016020818152604092839020805460ff19169092179091558151338152908101929092527f7da70c4e5387d7038610b79ca7d304caaef815826e51e67cf247135387a79bce910160405180910390a1600160005592915050565b60006102218260405160200161020d91906103f0565b6040516020818303038152906040526100c5565b92915050565b60008180602001905181019061023d9190610413565b60405161024990610276565b61025391906103f0565b604051809103906000f08015801561026f573d6000803e3d6000fd5b5092915050565b6103eb8061044983390190565b634e487b7160e01b600052604160045260246000fd5b6040805190810167ffffffffffffffff811182821017156102bc576102bc610283565b60405290565b6000602082840312156102d457600080fd5b813567ffffffffffffffff808211156102ec57600080fd5b818401915084601f83011261030057600080fd5b81358181111561031257610312610283565b604051601f8201601f19908116603f0116810190838211818310171561033a5761033a610283565b8160405282815287602084870101111561035357600080fd5b826020860160208301376000928101602001929092525095945050505050565b6001600160a01b038116811461038857600080fd5b50565b60006040828403121561039d57600080fd5b6103a5610299565b82356103b081610373565b815260208301356103c081610373565b60208201529392505050565b6000602082840312156103de57600080fd5b81356103e981610373565b9392505050565b81516001600160a01b039081168252602092830151169181019190915260400190565b60006040828403121561042557600080fd5b61042d610299565b825161043881610373565b815260208301516103c08161037356fe60c060405234801561001057600080fd5b506040516103eb3803806103eb83398101604081905261002f916100b4565b80516001600160a01b0390811660805260208083018051831660a05260408051338152855185169381019390935290519092168183015290517f3928767a7b1aefe738102e15a05eb56cc29c394f05627cd33764d8d42f389ff79181900360600190a15061011c565b80516001600160a01b03811681146100af57600080fd5b919050565b6000604082840312156100c657600080fd5b604080519081016001600160401b03811182821017156100f657634e487b7160e01b600052604160045260246000fd5b60405261010283610098565b815261011060208401610098565b60208201529392505050565b60805160a05161029f61014c60003960008181608f015260ce015260008181604b0152610150015261029f6000f3fe608060405234801561001057600080fd5b50600436106100415760003560e01c80635001f3b514610046578063999b93af1461008a578063a035b1fe146100b1575b600080fd5b61006d7f000000000000000000000000000000000000000000000000000000000000000081565b6040516001600160a01b0390911681526020015b60405180910390f35b61006d7f000000000000000000000000000000000000000000000000000000000000000081565b6100b96100c7565b604051908152602001610081565b60006101d67f00000000000000000000000000000000000000000000000000000000000000006001600160a01b031663a035b1fe6040518163ffffffff1660e01b8152600401602060405180830381865afa15801561012a573d6000803e3d6000fd5b505050506040513d601f19601f8201168201806040525081019061014e9190610201565b7f00000000000000000000000000000000000000000000000000000000000000006001600160a01b031663a035b1fe6040518163ffffffff1660e01b8152600401602060405180830381865afa1580156101ac573d6000803e3d6000fd5b505050506040513d601f19601f820116820180604052508101906101d09190610201565b906101db565b905090565b6000816101f0670de0b6b3a76400008561021a565b6101fa9190610247565b9392505050565b60006020828403121561021357600080fd5b5051919050565b600081600019048311821515161561024257634e487b7160e01b600052601160045260246000fd5b500290565b60008261026457634e487b7160e01b600052601260045260246000fd5b50049056fea2646970667358221220251f588b9c3c380f9a31a2c1d7a36c505383440be3b8ea923be37b1d9809c2ee64736f6c634300080a0033a2646970667358221220a129d2873ebc726e8f8ca55a3d7455e5a365ffa0521be14184bdcf484cb0463a64736f6c634300080a0033",
  "linkReferences": {},
  "deployedLinkReferences": {}
}